{
  "_format": "hh-sol-artifact-1",
  "contractName": "MyTest",
  "sourceName": "contracts/myTest.sol",
  "abi": [
    {
      "inputs": [
        {
          "internalType": "uint256",
          "name": "_unlockedTime",
          "type": "uint256"
        }
      ],
      "stateMutability": "payable",
      "type": "constructor"
    },
    {
      "anonymous": false,
      "inputs": [
        {
          "indexed": false,
          "internalType": "uint256",
          "name": "amount",
          "type": "uint256"
        },
        {
          "indexed": false,
          "internalType": "uint256",
          "name": "when",
          "type": "uint256"
        }
      ],
      "name": "withdraw",
      "type": "event"
    },
    {
      "inputs": [],
      "name": "Withdraw",
      "outputs": [],
      "stateMutability": "nonpayable",
      "type": "function"
    },
    {
      "inputs": [],
      "name": "owner",
      "outputs": [
        {
          "internalType": "address payable",
          "name": "",
          "type": "address"
        }
      ],
      "stateMutability": "view",
      "type": "function"
    },
    {
      "inputs": [],
      "name": "unlockedTime",
      "outputs": [
        {
          "internalType": "uint256",
          "name": "",
          "type": "uint256"
        }
      ],
      "stateMutability": "view",
      "type": "function"
    }
  ],
  "bytecode": "0x60806040526040516105da3803806105da833981810160405281019061002591906100f0565b804210610067576040517f08c379a000000000000000000000000000000000000000000000000000000000815260040161005e9061017a565b60405180910390fd5b8060008190555033600160006101000a81548173ffffffffffffffffffffffffffffffffffffffff021916908373ffffffffffffffffffffffffffffffffffffffff1602179055505061019a565b600080fd5b6000819050919050565b6100cd816100ba565b81146100d857600080fd5b50565b6000815190506100ea816100c4565b92915050565b600060208284031215610106576101056100b5565b5b6000610114848285016100db565b91505092915050565b600082825260208201905092915050565b7f756e6c6f636b656454696d65206d75737420626520696e206675747572650000600082015250565b6000610164601e8361011d565b915061016f8261012e565b602082019050919050565b6000602082019050818103600083015261019381610157565b9050919050565b610431806101a96000396000f3fe608060405234801561001057600080fd5b50600436106100415760003560e01c80630e5c6f421461004657806357ea89b6146100645780638da5cb5b1461006e575b600080fd5b61004e61008c565b60405161005b919061024c565b60405180910390f35b61006c610092565b005b61007661020d565b60405161008391906102a8565b60405180910390f35b60005481565b6000544210156100d7576040517f08c379a00000000000000000000000000000000000000000000000000000000081526004016100ce90610346565b60405180910390fd5b600160009054906101000a900473ffffffffffffffffffffffffffffffffffffffff1673ffffffffffffffffffffffffffffffffffffffff163373ffffffffffffffffffffffffffffffffffffffff1614610167576040517f08c379a000000000000000000000000000000000000000000000000000000000815260040161015e906103b2565b60405180910390fd5b600160009054906101000a900473ffffffffffffffffffffffffffffffffffffffff1673ffffffffffffffffffffffffffffffffffffffff166108fc479081150290604051600060405180830381858888f193505050501580156101cf573d6000803e3d6000fd5b507f441a3e70c6f476810f346a8a9bd493b00e9afd2ba1ab35eca9005dfd312435a9476000546040516102039291906103d2565b60405180910390a1565b600160009054906101000a900473ffffffffffffffffffffffffffffffffffffffff1681565b6000819050919050565b61024681610233565b82525050565b6000602082019050610261600083018461023d565b92915050565b600073ffffffffffffffffffffffffffffffffffffffff82169050919050565b600061029282610267565b9050919050565b6102a281610287565b82525050565b60006020820190506102bd6000830184610299565b92915050565b600082825260208201905092915050565b7f576169742074696c6c207468652074696d6520706572696f6420636f6d706c6560008201527f7465642100000000000000000000000000000000000000000000000000000000602082015250565b60006103306024836102c3565b915061033b826102d4565b604082019050919050565b6000602082019050818103600083015261035f81610323565b9050919050565b7f796f752063616e6e6f742077697468647261772066756e647321000000000000600082015250565b600061039c601a836102c3565b91506103a782610366565b602082019050919050565b600060208201905081810360008301526103cb8161038f565b9050919050565b60006040820190506103e7600083018561023d565b6103f4602083018461023d565b939250505056fea2646970667358221220798af23119dda8b23eda8ce3a3173f77f4e1fc2424c3eb791ac99673edfd104164736f6c63430008110033",
  "linkReferences": {},
  "deployedLinkReferences": {}
}